:020000040800F2
:1000000048360020C1010008871400088B12000840
:1000100085140008CD020008E9180008000000005F
:100020000000000000000000000000008B14000829
:10003000CF02000800000000891400088D14000899
:10004000DB010008DB010008DB010008DB01000820
:10005000DB010008DB010008DB010008DB01000810
:10006000DB010008DB010008DB010008DB01000800
:10007000DB010008DB010008DB010008DB010008F0
:10008000DB010008DB010008DB010008DB010008E0
:10009000DB010008DB010008DB010008DB010008D0
:1000A000DB010008DB010008DB010008DB010008C0
:1000B000DB010008DB010008DB010008DB010008B0
:1000C000DB010008DB010008DB010008DB010008A0
:1000D000DB010008DB010008DD180008DB01000877
:1000E000DB010008DB010008DB010008DB01000880
:1000F000DB010008DB010008DB010008DB01000870
:10010000DB010008DB010008DB010008DB0100085F
:10011000DB010008DB01000849150008551500083F
:10012000DB010008DB010008DB010008DB0100083F
:10013000DB010008DB010008DB010008DB0100082F
:10014000DB010008DB010008DB010008DB0100081F
:10015000DB010008DB010008DB010008DB0100080F
:10016000DB010008DB010008DB010008DB010008FF
:10017000DB010008DB010008DB01000800000000D3
:10018000DB010008DB010008DB010008DB010008DF
:10019000DB010008DB010008DB010008DB010008CF
:1001A000DB010008DB010008DB010008DFF80CD0F0
:1001B00000F07AF800480047291900084836002066
:1001C0000648804706480047FEE7FEE7FEE7FEE7F1
:1001D000FEE7FEE7FEE7FEE7FEE7FEE72D15000877
:1001E000AD0100082DE9F05F0546002092469B46D0
:1001F00088460646814640241BE02846414647463D
:10020000224600F041F853465A46C01A914110D395
:1002100011461846224600F028F82D1A67EB01080F
:100220004F4622460120002100F01FF817EB00097D
:100230004E41201EA4F10104DFDC484631462A4627
:100240004346BDE8F09FD2B201E000F8012B491E01
:10025000FBD270470022F6E710B513460A46044663
:100260001946FFF7F0FF204610BD202A04DB203A94
:1002700000FA02F1002070479140C2F1200320FAF9
:1002800003F3194390407047202A04DB203A21FAF7
:1002900002F00021704721FA02F3D040C2F120029F
:1002A0009140084319467047064C074D06E0E06848
:1002B00040F0010394E8070098471034AC42F6D3AD
:1002C000FFF778FFC41F0008E41F0008FEE770472F
:1002D00072B6FEE790F83510022903D080214165FF
:1002E00001207047052180F835100068016821F071
:1002F000010101600020704770B5044600F002F96A
:100300000546601C02D004480078044400F0FAF866
:10031000401BA042FAD370BD000000202DE9F84F29
:1003200000224FF0010803254FF00F0E0B6808FA6A
:1003300002F42340A3426ED14E68012E05D0022E56
:1003400003D0112E01D0122E12D186684FEA420C32
:1003500005FA0CF7BE43CF6807FA0CF737438760FE
:100360004668A6430C79C4F30014944034434460B7
:10037000C668570005FA07FC8C6826EA0C06BC40E4
:100380003443C4604C68022C01D0122C13D1D40821
:1003900000EB8404A346D4F8209054074FEAD46AB3
:1003A0000EFA0AF629EA06090E6906FA0AF646EA7C
:1003B0000906CBF8206004680E7924EA0C0406F0E4
:1003C0000306BE40264306604C68E4006FD53B4CF4
:1003D000266846F480462660246822F0030604F46A
:1003E00080440094364C3444A446D4F80848960718
:1003F000360F0EFA06F7BC43324FB84201D1002740
:100400002EE0314FB84201D1012729E02F4FB842E9
:1004100002D1022724E04AE02D4FB84201D1032740
:100420001EE02C4FB84201D1042719E02A4FB842F0
:1004300001D1052714E0294FB84201D106270FE06A
:10044000274FB84201D107270AE0264FB84201D111
:10045000082705E0244FB84201D1092700E00A2708
:10046000B7402743CCF80878204E34684F689C4347
:10047000FF0300D51C4334601C4E361D34684F68A2
:100480009C43BF0300D51C433460184E08363468C3
:100490004F689C43FF0200D51C433460134E0C365A
:1004A00034684F689C43BF0200D51C433460521C23
:1004B000102AFFF43BAFBDE8F88F0000443802403B
:1004C00000300140000002400004024000080240E9
:1004D000000C0240001002400014024000180240CC
:1004E000001C02400020024000240240003C014069
:1004F0000069084000D0012070470AB1816170474F
:100500000904FBE7014880687047000000000020F4
:100510000248816802781144816070470000002021
:100520000B4810B5016841F400710160016841F4A5
:1005300080610160016841F480710160032000F076
:1005400089F8002000F006F800F03EF8002010BD09
:10055000003C024010B5014688B00022372000F070
:1005600059F8372000F048F813480024016841F09A
:1005700020010160006805A900F02000069068468F
:1005800000F04CF900F06AF90C494000B0FBF1F1C1
:100590000C480B4A491E026040F2E732C0E90324CE
:1005A000C0E9011400F0A4FB10B1012008B010BD97
:1005B000044800F0D7FBF9E74038024040420F0002
:1005C00000140040F80000200A4808B5016841F412
:1005D00080410160006800F4804000900548001FE1
:1005E000016841F080510160006800F08050009087
:1005F00008BD000044380240002809DB00F01F025B
:10060000012191404009800000F1E020C0F8001174
:1006100070470000F0B40E4B1B680C46C3F3022376
:10062000C3F10705042D00D90425191D072901D29E
:10063000002300E0DB1E012606FA05F1491E2140D9
:1006400099409E40761E16403143F0BC01F04DB9F2
:100650000CED00E0064900F0070208684FF6FF03C2
:10066000184040EA0220034A104308607047000027
:100670000CED00E00000FA052DE9F8431748016889
:1006800041F0805101600068154F00F08050012654
:1006900000903E64FFF736FF05464FF47A78114C20
:1006A00005E000BFFFF72EFF401B40450DD86068F6
:1006B000C003F7D57E64FFF725FF0546464607E0F1
:1006C000FFF720FF401BB04202D90320BDE8F883AA
:1006D00060688003F4D50020F8E70000403802404D
:1006E00000000E42007000402DE9F0470E46050064
:1006F00065D0DFF81481D8F80000F7B200F00F00E1
:10070000B04207D288F80070D8F8000000F00F005F
:10071000B04254D128683D4C810712D5400703D51B
:10072000206840F4E05020602878000703D5206856
:1007300040F4604020602068A96820F0F000084381
:1007400020602878C0072DD0304968680839012812
:1007500012D0022813D0032811D009688907002974
:100760002DDA216821F0030101432160FFF7CAFE61
:10077000814641F2883A0EE009688903EFE709688B
:100780008901ECE7FFF7BEFEA0EB0901514502D954
:100790000320BDE8F0872068696800F00C00B0EB2A
:1007A000810FEFD1D8F80010404601F00F01B1429F
:1007B00007D90770006800F00F00B04201D0012097
:1007C000E7E72878400705D52068E96820F4E0507D
:1007D000084320602878000706D52068296920F49E
:1007E000604040EAC100206000F058F82168084AE3
:1007F000C1F30311515CC84006490860064800680F
:10080000FFF7A8FE0020C4E7003C02400838024081
:10081000AA1D00080C000020040000200F22026026
:100820000C4A136803F003034360136803F0F003FA
:100830008360136803F4E053C36012684FF4E0531D
:1008400003EAD20202610448006800F00F00086069
:100850007047000008380240003C02400448054947
:1008600000680968044AC1F38221515CC84070479E
:100870000C00002008380240BA1D00080448054951
:1008800000680968044AC1F34231515CC8407047AE
:100890000C00002008380240BA1D0008154810B5A9
:1008A000006810F00C02144813D01449042A0FD029
:1008B000082A0ED10F4C241F2268236802F03F0241
:1008C0005B0207D52068C0F38810A0FB010106E099
:1008D000084610BD2168C1F38811A1FB0001002367
:1008E000FFF780FC2168C1F30141491C4900B0FBBE
:1008F000F1F010BD083802400024F40040787D017A
:100900002DE9F84F04006ED02078DFF83C93C00743
:10091000A9F104054AD009F104000168C1F381017D
:10092000012908D00068C0F3810002280AD1D9F853
:100930000000400206D52868800337D5606800288B
:10094000E1D033E06068B0F5803F10D0B0F5A02F63
:10095000286810D020F480302860286820F4802097
:1009600028606068A8B1FFF7CDFD06460DE0286855
:1009700040F48030F4E740F480202860F7E700BFBF
:10098000FFF7C0FD801B642873D828688003F7D563
:100990000CE0FFF7B7FD064605E000BFFFF7B2FD2C
:1009A000801B6428F0D828688003F7D42078DFF80B
:1009B0009C8280074FF0000A3ED5A348001D0168C5
:1009C00011F00C0F08D00068C0F3810002280BD191
:1009D000D9F80000400207D42868800716D5E068DF
:1009E000012800D112E02BE1E068B8B10120C8F87D
:1009F0000000FFF787FD064605E000BFFFF782FD18
:100A0000801B0228C0D828688007F7D5286821698C
:100A100020F0F80040EAC10028600DE0C8F800A00E
:100A2000FFF770FD064604E0FFF76CFD801B02280F
:100A30001FD828688007F7D42078000722D5824E77
:100A400083486169703671B101210160FFF75AFD79
:100A5000074604E0FFF756FDC01B022809D830689E
:100A60008007F7D50EE0C0F800A0FFF74BFD074662
:100A700005E082E0FFF746FDC01B02287DD8306804
:100A80008007F7D42078400768D5DFF8BCB100278D
:100A90000BF13C0BDBF80000C0000BD4DBF80010BE
:100AA00041F08051CBF80010DBF80000012700F086
:100AB00080500090674E3068C00510D4306840F414
:100AC00080703060FFF71EFD009005E0FFF71AFD13
:100AD0000099401A022850D83068C005F6D55A4E01
:100AE000A0686C3601280FD00528306810D020F09F
:100AF00001003060306820F004003060A068B8B1B8
:100B0000FFF700FD00900FE0306840F00100F4E7CF
:100B100040F004003060F7E7FFF7F4FC0099411A59
:100B200041F28830814266D830688007F4D50EE003
:100B3000FFF7E8FC009007E0FFF7E4FC0099411A9A
:100B400041F28830814256D830688007F4D42FB102
:100B5000DBF8001021F08051CBF80010A069C8B379
:100B60003949091D0968C1F3810102294AD00228C7
:100B7000504607D0C8F8600000E03CE0FFF7C2FC38
:100B800004463BE04746C8F86000FFF7BBFC06465A
:100B900005E000BFFFF7B6FC801B02282BD82868B1
:100BA0008001F7D4D4E907010843A16A2A4A490819
:100BB00002EB0141626A41EA8211084394F82C1069
:100BC00040EA0161C9F8001001203866FFF79AFC7D
:100BD000044606E036E000BFFFF794FC001B022845
:100BE00009D828688001F7D52CE000BFFFF78AFC00
:100BF000001B022802D90320BDE8F88F2868800175
:100C0000F4D41FE00128F7D0D9F80000E26900F41D
:100C10008001914214D1226A00F03F0191420FD12C
:100C200047F6C071626A0140914209D1A26A00F49C
:100C30004031914204D1E16A00F07060884201D0F5
:100C40000120D9E70020D7E70438024000004742DE
:100C5000800E4742007000400000FFFF7047704761
:100C600070B590F83C20012A32D0012480F83C4035
:100C7000022280F83D2003685A689D6822F07006C1
:100C80000A6832435A60134B02689A4214D0B2F198
:100C9000804F11D0104B9A420ED0104B9A420BD07D
:100CA0000F4B9A4208D00F4B9A4205D00E4B9A42F6
:100CB00002D00E4B9A4204D1496825F080031943B3
:100CC000916080F83D40002180F83C10084670BDDE
:100CD000022070BD000001400004004000080040F8
:100CE000000C00400004014000400140001800409A
:100CF00010B5040003D094F83D0010B107E00120C6
:100D000010BD002084F83C00204600F00DF80220C1
:100D100084F83D00211D206800F022FC012084F8A9
:100D20003D00002010BD000008B500680B49884256
:100D300012D10B48016841F01001016000680022E7
:100D400000F01000009011463620FFF763FCBDE86C
:100D500008403620FFF750BC08BD000000100040DE
:100D6000403802400168CA6842F00102CA60006867
:100D7000816801F00701062903D0016841F00101F3
:100D80000160002070470168CA6822F00102CA6051
:100D90000068016A41F21112114207D1016A9210F2
:100DA000114203D1016821F0010101600020704768
:100DB000704770B50446006801694FF00005C943EB
:100DC000890715D4C168C943890711D4E91E016197
:100DD00001202077206880698007204602D0FFF735
:100DE000E7FF04E000F098F8204600F096F8257739
:100DF00020680169C943490717D4C168C943490735
:100E000013D46FF00401016102202077206880690B
:100E100010F4407F204602D0FFF7CAFF04E000F044
:100E20007BF8204600F079F8257720680169C943EE
:100E3000090716D4C168C943090712D46FF0080125
:100E40000161042020772068C0698007204602D015
:100E5000FFF7AEFF04E000F05FF8204600F05DF819
:100E6000257720680169C943C90617D4C168C943F9
:100E7000C90613D46FF010010161082020772068A3
:100E8000C06910F4407F204602D0FFF791FF04E0D4
:100E900000F042F8204600F040F82577206801690C
:100EA000C943C90708D1C168C943C90704D1891E0C
:100EB0000161204600F032F820680169C943090643
:100EC00009D4C168C943090605D46FF080010161E6
:100ED0002046FFF7C3FE20680169C943490609D4CB
:100EE000C168C943490605D46FF04001016120463D
:100EF00000F024F820680169C94389060BD4C16851
:100F0000C943890607D46FF0200101612046BDE87E
:100F10007040FFF7A4BE70BD7047704710B504461F
:100F200000680549884201D1FFF7F2FA2046BDE882
:100F3000104000F06BBA000000140040704770478A
:100F400070B5026804461068D168536910F00F0F3D
:100F500052D003F0010501F490762E435FD0C20712
:100F600005D0CA0503D5E26B42F00102E2634207F5
:100F700005D5DA0703D0E26B42F00202E263820792
:100F800005D5DA0703D0E26B42F00402E263020700
:100F900007D501F020022A4303D0E26B42F0080299
:100FA000E263E26B002A33D0800604D5880602D5BE
:100FB000204600F04FFB20684069E16BC0F38010D1
:100FC000090700D428B3204600F036FB20684169A9
:100FD00049061AD5416921F040014161606BA0B119
:100FE0001B490165606BFFF775F9002810D0606B35
:100FF000016DBDE870400847830610D58B060ED5FD
:101000002046BDE8704000F025BB2046FFF797FF63
:1010100070BD2046FFF793FF0020E06370BD03061C
:1010200006D50B0604D52046BDE8704000F0F2BBA3
:101030004006F3D54806F1D5D168204621F040019D
:10104000D160202184F8391000F01EF970BD000035
:101050002916000870B5040004D094F83900002562
:1010600010B106E0012070BD84F83850204600F031
:1010700023F8242084F839002068C16821F4005145
:10108000C160204600F032FB2068016921F49041E4
:1010900001612068416921F02A0141612068C1682D
:1010A00041F40051C160E563202084F8390084F8E0
:1010B0003A00002070BD000070B586B004461421CF
:1010C0006846FFF7C7F8274E22680021264802230A
:1010D00003240725B2421DD1234A1432166846F074
:1010E00010061660126802F010020592026842F0C3
:1010F00001020260006802AA00F00100059082E887
:1011000032006002CDE9000369461848FFF706F98E
:1011100006B070BD164EB242FAD1134A10321668AC
:1011200046F400361660126802F400320592026836
:1011300042F008020260006802AA00F00800059070
:1011400082E832006020CDE9000369460948FFF7D4
:10115000E5F8002211462620FFF75CFA2620FFF76B
:101160004BFAD5E700100140303802400000024041
:1011700000440040000C024090F83A30202B22D16D
:10118000F9B1F2B190F83830012B1CD08162828520
:10119000C2850021C163222280F83A2080F83810ED
:1011A0000168CA6842F48072CA6001684A6942F004
:1011B00001024A610068C16841F02001C16000205D
:1011C0007047012070470220704700F02FB92DE9C9
:1011D000F843044690F839001F4616460D4620286D
:1011E00050D1B5B1AEB194F8380001284AD00120F1
:1011F00084F838004FF00008C4F83C80212084F8BF
:101200003900FFF77FF9A6848146E68484F83880A8
:1012100026E00120BDE8F883E08C401EE084A06851
:101220004B46B0F5805F4FF000024FF08001204642
:10123000009703D000F01FFBE8B90DE000F01BFBA6
:10124000C8B928882168C0F308004860206908B13F
:101250006D1C05E0AD1C03E0216815F8010B48602A
:10126000E08C0028D8D14B46002240212046009730
:1012700000F001FB08B10320CCE7202084F83900FE
:101280000020C7E70220C5E77047FEE72DE9F043DD
:1012900087B014216846FEF7DDFF2B480024016863
:1012A00041F004010160016801F004010591016849
:1012B00041F080010160016801F080010591016841
:1012C00041F001010160016801F00101059101682F
:1012D00041F008010160016801F008010591016811
:1012E00041F0020101600068DFF8608000F0020058
:1012F0004FF480660590002231464046FFF7FDF826
:10130000DFF84C90B710002239464846FFF7F5F851
:101310000125CDE9005469460E480294FEF7FEFF10
:101320000096CDE90154694640460394FEF7F6FF66
:101330000097CDE90154694648460394FEF7EEFF55
:1013400007B0BDE8F083000030380240001C0240C6
:1013500000040240000002401CB500240E48009426
:101360000C49019401605921C0E901144FF6FF7145
:101370008461C160FFF7BCFC08B1FEF7A9FF0094CF
:10138000694605480194FFF76BFC002801D0FEF781
:101390009FFF1CBD00100040380000200C4810B515
:1013A0000A4901604FF416514160002181600C220E
:1013B000C160C0E904128161C161FFF74BFE0028E2
:1013C00003D0BDE81040FEF783BF10BD0010014000
:1013D000780000200C4810B50A4901604FF41651FE
:1013E0004160002181600C22C160C0E9041281616A
:1013F000C161FFF72FFE002803D0BDE81040FEF7C3
:1014000067BF10BD00440040B8000020054A0168D5
:101410001268914204D1044A01211172FFF7B3BC52
:1014200070470000380000203801002070B51249D4
:101430000068096888421DD1104C114D207A40B9CE
:101440002846FFF78FFC29686FF001000861022031
:101450002072E38822682079D054E088401CE08024
:101460002A68002050620122211DBDE87040024818
:10147000FFF782BE70BD0000B800002038010020D8
:1014800038000020FEE7FEE7704770477047000015
:1014900070B592B030216846FEF7DCFE14210CA82E
:1014A000FEF7D8FE1F480025016841F08051016019
:1014B000006800F0805011901B48016841F44041E1
:1014C00001600068022400F4404011900120009067
:1014D000000401908001CDE906400F260896D8202F
:1014E000CDE9090404200B906846FFF709FA08B11A
:1014F00072B6FEE7FFF7C0F808B172B6FEE74FF428
:10150000A050CDE90E504FF48050CDE90C641090FE
:1015100005210CA8FFF7E8F8002801D072B6FEE715
:1015200012B070BD403802400070004005480168AC
:1015300041F47001016003494FF000608039086098
:101540007047000088ED00E00148FFF732BC000062
:10155000380000200148FFF72CBC0000F8000020F4
:10156000F0B50268254C264D264E274F274B4FF0ED
:10157000804CA04209D0604507D0A84205D0B042B7
:1015800003D0B84201D0984204D122F0700E4A68CC
:1015900042EA0E02A0421BD0604519D0A84217D0E3
:1015A000B04215D0B84213D0984211D0184DA8427D
:1015B0000ED0184DA8420BD0174DA84208D0174D99
:1015C000A84205D0164DA84202D0164DA84203D11C
:1015D00022F44075CA682A434D6922F080022A43EA
:1015E00002608A68C2620A688262A04201D09842A0
:1015F00001D10969016301214161F0BD0000014091
:101600000004004000080040000C004000040140BD
:1016100000400140004401400048014000180040E3
:10162000001C00400020004010B5806B0021C185E7
:10163000C184FFF784FC10BD0168CA6822F490726F
:10164000CA6001684A6922F001024A61202180F8DB
:101650003A10704710B590F83A10222901D00220B4
:1016600010BD8168B1F5805F11D001690029016862
:101670001FD0496801F07F03816A4A1C82620B70A7
:10168000C18D491E0904090CC18518D02BE00269DF
:10169000816A002A0268526805D0D2B20A80816A43
:1016A000491C8162ECE7C2F308020A80816A891C46
:1016B000F7E74A68816A4B1C83620A70E0E70168B9
:1016C000CA6822F02002CA600168CA6822F48072E7
:1016D000CA6001684A6922F001024A61202180F84B
:1016E0003A10FFF772FD002010BD00002DE9F04117
:1016F000044600680169E26821F440511143016128
:101700002169A068E26908436169114308432168BF
:10171000CA6849F20C639A430243CA60206841696F
:10172000A26921F4407111434161E06919276425E0
:101730003226B0F5004F354A354920684FF0000891
:1017400006D0884201D0904236D1FFF797F835E0B5
:10175000884201D0904202D1FFF790F801E0FFF7F4
:101760007DF861684A18A0FB070148EB0803FEF703
:1017700039FD0146B0FBF5F00201B1FBF5F06FF069
:101780001803584301EB800006EBC000B0FBF5F0F6
:1017900000F0F80002EB4002B1FBF5F0584301EB1A
:1017A000800006EBC000B0FBF5F000F007002168F8
:1017B00010448860BDE8F081FFF750F861688B0F36
:1017C0008A00A0FB0701FEF70DFD0146B0FBF5F016
:1017D0006FF01802504301EB800006EB0010B0FBE5
:1017E000F5F000F0F002B1FBF5F002EB0012B1FBF6
:1017F000F5F06FF01803584301EB800006EB001082
:10180000B0FBF5F000F00F00D1E70000001401403C
:101810000010014090F83910212901D002207047B2
:101820008168B1F5805F016A0BD04A1C02620268D0
:1018300009785160C18C491E0904090CC1840ED07D
:1018400017E009880268C1F30801516001690029A5
:10185000016A02D0491C0162ECE7891CFBE70168C0
:10186000CA6822F08002CA600068C16841F0400185
:10187000C160002070472DE9F041984617460E469A
:101880000446069D1DE0681C1BD02DB1FEF73AFEF4
:10189000A0EB0800A84214D92068C16821F4D071D7
:1018A000C1602068416921F001014161202084F874
:1018B000390084F83A00002084F838000320BDE89D
:1018C000F0812068006836EA000004D00020B842A9
:1018D000D9D00020F3E70120F9E700000148FFF725
:1018E0002FBB0000B8000020FEE70907090E002802
:1018F00004DB00F1E02080F80014704700F00F00D6
:1019000000F1E02080F8141D704702E008C8121FA3
:1019100008C1002AFAD170477047002001E001C1D8
:10192000121F002AFBD17047FEF7FAFDFFF7B0FD4A
:10193000FFF7ACFCFFF732FDFFF74CFDFFF70CFDA6
:10194000012291020F48FEF7D8FD4FF416520E49BE
:10195000002000F0C5F80D4C01212046FEF7C8FD1F
:1019600001280AD101212046FEF7C2FD0028F9D145
:101970000749A1F1100000F0BDF93220FEF7BCFCD0
:10198000EAE70000001C0240B8000020000002400E
:1019900028000020F0B50B30154D20F00701002481
:1019A000144A0FE003688B420BD38B4205D95E1AB1
:1019B00043184768C3E9006700E04368136002C04A
:1019C00004E0021D10680028ECD12046002802D156
:1019D000286808B10020F0BD064A07481060074A91
:1019E000121A22F00702C0E9002401202860D7E77C
:1019F00014000020100000204C0100204816002098
:101A000070B5C2B0044600788DF8000060788DF89B
:101A1000010000208DF80200A2788DF80320627882
:101A200001216E460F2A3BD0102A1AD0A0680088E8
:101A3000000A8DF80400A068062500788DF80500DE
:101A40002946304600F03AF9A081010A71556D1C13
:101A5000A9B27054491C89B2684600F087F942B0B7
:101A600070BD8DF8040020798DF8050020790725D8
:101A700040008DF8060000200EE0A16831F810103B
:101A8000090A7155A2686D1CA9B212F8102072548F
:101A9000491C401C8DB2C0B221798142EDD8CFE7FC
:101AA0008DF8040020798DF805002079082806D9E2
:101AB000420702D001EBD00102E0C10800E00121A1
:101AC00007258DF80610002007E0A26812F8102004
:101AD00072556D1C401CADB2C0B28842F5D3AFE761
:101AE0002DE9F041054616460F4640F20510FFF776
:101AF00051FF084C314620600020E0802072657262
:101B0000384600F01FF9206810B10020BDE8F081D0
:101B10000320FBE7380100202DE9F041664E044622
:101B20000025F088401FB0F5807F04D9F58035721C
:101B30000120BDE8F0816048717A006831B1027817
:101B40008A426BD0F58035720420F2E74178012992
:101B500005D0022903D0032901D004293AD1B04687
:101B60008678F11C00F0AAF8D8F80010321D8B5CC2
:101B7000F21C8A5CA8F8065003EB022297B2424698
:101B800088F80850B8427CD1087820701068154653
:101B90004078607026717008FFF7FCFEA060002896
:101BA00017D000200322042310E000BF296803EBB4
:101BB000400C02EB400811F80CC011F808100CEBB7
:101BC0000121D4F808C02CF81010401CB0EB560FBF
:101BD000ECDB6CE0062100F071F83168CA798B7992
:101BE000F58002EB032297B23572B84262D10878D1
:101BF00020703068407860703068C178807801EB80
:101C0000002060800120FFF7C5FEA060D0B33168DE
:101C10004A79097902EB0121018048E041781029D5
:101C200001D00F29D6D1B0468679F11D00F046F8D3
:101C3000D8F8001006F108028B5CF21D8A5CA8F847
:101C4000065003EB022297B2424688F80850B84289
:101C500030D10878207010681546407860701068A0
:101C6000C178807801EB0020608010684079207195
:101C70007008FFF78FFEA06020B100200822072324
:101C800012E017E013E000BF296802EB400C03EB01
:101C9000400811F80CC011F808100CEB0121D4F821
:101CA00008C02CF81010401CB0EB560FECDBA781DD
:101CB00000203EE702203CE738010020F0B5002577
:101CC0000B4EFF231A4606F5807705E010F8014B0E
:101CD0005440325D5A403B5D491E89B2F6D2A81885
:101CE0004FF6FF7101EA0020184480B2F0BD0000F9
:101CF000C21D0008F8B50D46104909680091012180
:101D000001700321417000214180C0F808D0FFF725
:101D100077FE0B4E0024307A012803D12846FFF7C6
:101D2000FBFE40B10A20FEF7E7FA641CE4B20A2C7D
:101D3000F1D30020F8BD0120F8BD0000A81D000867
:101D40003801002010B5044600224FF48071054888
:101D5000FEF7D3FB2046BDE8104001220249FFF701
:101D60000BBA0000000402403C0100202DE9F041C4
:101D700001220B4F0C460546160231463846FEF747
:101D8000BCFB4FF6FF73224629460648FFF71FFAB1
:101D900031463846BDE8F0410022FEF7AEBB0000F8
:101DA00000040240B8000020010000000000000014
:101DB00000000102030406070809000000000102F8
:101DC000030400C1814001C0804101C0804100C1C5
:101DD000814001C0804100C1814000C1814001C0FB
:101DE000804101C0804100C1814000C1814001C0EB
:101DF000804100C1814001C0804101C0804100C1DB
:101E0000814001C0804100C1814000C1814001C0CA
:101E1000804100C1814001C0804101C0804100C1BA
:101E2000814000C1814001C0804101C0804100C1AA
:101E3000814001C0804100C1814000C1814001C09A
:101E4000804101C0804100C1814000C1814001C08A
:101E5000804100C1814001C0804101C0804100C17A
:101E6000814000C1814001C0804101C0804100C16A
:101E7000814001C0804100C1814000C1814001C05A
:101E8000804100C1814001C0804101C0804100C14A
:101E9000814001C0804100C1814000C1814001C03A
:101EA000804101C0804100C1814000C1814001C02A
:101EB000804100C1814001C0804101C0804100C11A
:101EC000814000C0C101C30302C2C60607C705C5E1
:101ED000C404CC0C0DCD0FCFCE0E0ACACB0BC90952
:101EE00008C8D81819D91BDBDA1A1EDEDF1FDD1D62
:101EF0001CDC14D4D515D71716D6D21213D311D192
:101F0000D010F03031F133F3F23236F6F737F535E1
:101F100034F43CFCFD3DFF3F3EFEFA3A3BFB39F911
:101F2000F83828E8E929EB2B2AEAEE2E2FEF2DEDE1
:101F3000EC2CE42425E527E7E62622E2E323E12151
:101F400020E0A06061A163A3A26266A6A767A56561
:101F500064A46CACAD6DAF6F6EAEAA6A6BAB69A9D1
:101F6000A86878B8B979BB7B7ABABE7E7FBF7DBDE1
:101F7000BC7CB47475B577B7B67672B2B373B17111
:101F800070B05090915193535292965657975595E1
:101F900094549C5C5D9D5F9F9E5E5A9A9B5B995991
:101FA0005898884849894B8B8A4A4E8E8F4F8D4D61
:101FB0004C8C4484854587474686824243834181D1
:101FC00080400000E41F000800000020180000000E
:101FD0000A190008FC1F0008180000203036000015
:101FE0001A190008010000001000000000000000A5
:0C1FF0000024F4000000000000000000CD
:04000005080001AD41
:00000001FF
